:020000040000FA
:020000000528D1
:1000080009002C2083160313861283120313861605
:100018000130F400242086120130F400242009283D
:1000280063001428F30A8E30F1000130F000F00B61
:100038001B28F10B1928F20B1728F30B17280800B7
:10004800E830F2000330F3001620F40B24280800EF
:100058008F30831603138F0560308F0483120313C8
:100068001F10831603139F13831603178801890132
:1000780083120317881387138312031385018601DC
:0600880087018901080058
:04 40 0E 00 D4 2F FF 3F 6D
:00000001FF